:020000040800F2
:1000000000000220610900084506000847060008B4
:10001000490600084B0600084D06000800000000D5
:100020000000000000000000000000004F06000873
:10003000510600080000000053060008550600089D
:10004000B1090008B1090008B1090008B1090008A8
:10005000B1090008B1090008B1090008B109000898
:10006000B1090008B10900085D060008B1090008DF
:10007000B1090008B1090008B1090008B109000878
:10008000B1090008B1090008B1090008B109000868
:1000900069060008B1090008B1090008B1090008A3
:1000A000B1090008B1090008B1090008B109000848
:1000B0007906000889060008B1090008B10900089E
:1000C000B1090008B1090008B1090008B109000828
:1000D000B109000899060008B1090008B109000833
:1000E000B1090008B1090008B1090008B109000808
:1000F000B1090008B1090008B1090008B1090008F8
:10010000B1090008B1090008B1090008B1090008E7
:10011000B1090008B1090008B1090008B1090008D7
:10012000B1090008B1090008B1090008B1090008C7
:10013000B1090008B1090008B1090008B1090008B7
:10014000B1090008B1090008B1090008B1090008A7
:10015000B1090008B1090008B1090008B109000897
:10016000B1090008B1090008B1090008B109000887
:10017000B1090008B1090008B10900080000000039
:08018000B1090008B1090008F3
:1001880053B94AB9002908BF00281CBF4FF0FF31F6
:100198004FF0FF3000F00CB8ADF1080C6DE904CE5B
:1001A80002F01EFBDDF804E0DDE9022304B070472D
:1001B800704700BF0348044B834202D0034B03B18E
:1001C8001847704724000020240000200000000089
:1001D8000548064B1B1AD90F01EBA301491002D0A1
:1001E800034B03B118477047240000202400002067
:1001F8000000000010B5064C237843B9FFF7DAFF7A
:10020800044B13B10448AFF300800123237010BDE1
:1002180024000020000000009C2B000808B5054BB6
:100228001BB105490548AFF30080BDE80840FFF75A
:10023800CFBF00BF00000000280000209C2B000852
:1002480008B50E480E4B0360032343600023836008
:10025800C3604FF4002202614FF4401242610376FA
:10026800012242768376C2760377427700F004FC57
:1002780000B908BD00F00AF9FBE700BF4000002004
:100288000064004010B588B00023039304930593DD
:10029800069307930268184B9A4201D008B010BD24
:1002A8000024019403F5EA331A6C42F000721A64D0
:1002B8001A6C02F000720192019A02941A6B42F0D1
:1002C80008021A631B6B03F008030293029B0323C3
:1002D80003930222049206930923079303A907486C
:1002E80000F06CFE22462146142000F0AFFD1420D9
:1002F80000F0E4FDD2E700BF00640040000C0240BB
:1003080030B58BB00024059406940794089409949A
:1003180000942B4B1A6B42F080021A631A6B02F09E
:1003280080020092009A01941A6B42F004021A6348
:100338001A6B02F004020192019A02941A6B42F0BD
:1003480002021A631A6B02F002020292029A0394E2
:100358001A6B42F001021A631A6B02F0010203924F
:10036800039A04941A6B42F008021A631B6B03F099
:1003780008030493049B134D01222021284600F012
:100388001AFF102305934FF488130693079405A9C1
:10039800284600F013FE20230593012306930794B3
:1003A800089405A9284600F009FE224602210A20E1
:1003B80000F04CFD0A2000F081FD0BB030BD00BFFD
:1003C8000038024000080240102800D0704708B5E5
:1003D800104801F00DFB104A13780133DBB213709B
:1003E80003F00303137010210C4800F0DDFE012810
:1003F80000D008BD084B1B78012B06D0022BF8D182
:10040800074B4FF47A721A60F3E7054A4FF4FA7112
:100418001160F3E7700000206E0000200008024021
:10042800680000207047000008B5124B1B78612B4C
:100438000CD0622B13D00E220F49104801F0B6FFE2
:1004480001220C490D4802F0B8F908BD0C4BFA22FC
:100458001A6003220B49094801F0A8FFF0E7084B8E
:100468004FF4FA721A6004220749044801F09EFF0B
:10047800E6E700BF6F000020080000200001002010
:1004880068000020040000200000002072B6FEE78B
:1004980000B595B03022002108A802F029FB0023FE
:1004A800039304930593069307930193204A116CD1
:1004B80041F080511164126C02F080520192019A4D
:1004C80002931C4B1A6842F480421A601B6803F4BA
:1004D80080430293029B012308934FF480330993CE
:1004E80002220E924FF480030F9304231093A82145
:1004F80011911292139308A800F072FE98B90F2375
:10050800039302230493002305934FF4A053069307
:100518004FF480530793052103A801F0CBF820B9C5
:1005280015B05DF804FBFFF7B1FFFFF7AFFF00BFA1
:10053800003802400070004008B500F05DFAFFF78F
:10054800A7FFFFF7DDFE00F0B5F800F051F900F065
:10055800A9F9FFF775FE0821234801F047FD01229C
:100568002249234802F029F903E0224B1B78032B88
:1005780022D0204B1B78013BDBB2012BF5D81E4D56
:10058800286800F065FA1D4C00222021204600F062
:1005980012FE286800F05CFA01222021204600F0B3
:1005A8000AFEE2E701339BB2154A13800E4A12682D
:1005B800D363022000F04CFA114B1B88B3F5FA7F85
:1005C800F0D30F4B1B8823B94FF4957000F040FA15
:1005D800CFE7013B9BB20A4A1380034A1268D363F0
:1005E800022000F035FAECE7B80000206F00002088
:1005F800000100206E000020680000200008024072
:100608006C00002082B0002100910B4B5A6C42F420
:1006180080425A645A6C02F480420092009A019116
:100628001A6C42F080521A641B6C03F080530193D9
:10063800019B02B0704700BF00380240FEE7FEE7AA
:10064800FEE7FEE7FEE770477047704708B500F021
:10065800EDF908BD08B5102000F0B4FD08BD000094
:1006680008B5024800F0BBFA08BD00BF40000020F2
:1006780008B5024801F005FA08BD00BF7000002067
:1006880008B5024801F0FDF908BD00BFB800002018
:1006980008B5024801F032FF08BD00BF0001002084
:1006A800034AD2F8883043F47003C2F888307047A0
:1006B80000ED00E000B587B0002302930393049394
:1006C80005930093019316484FF08042026042F26E
:1006D800CF0242608360C722C260036180238361C6
:1006E80001F0EAFA90B94FF48053029302A90C483A
:1006F80001F0EDFB68B900230093019369460848AF
:1007080001F0F6FC40B907B05DF804FBFFF7BEFE48
:10071800E9E7FFF7BBFEEEE7FFF7B8FEF3E700BF38
:100728007000002000B583B00368B3F1804F05D096
:10073800174A934217D003B05DF804FB00220092D9
:1007480003F50E33196C41F0010119641B6C03F0B9
:1007580001030093009B03211C2000F077FB1C2061
:1007680000F0ACFBE7E7002201920A4B196C41F05C
:10077800020119641B6C03F002030193019B012120
:100788001D2000F063FB1D2000F098FBD3E700BF9D
:10079800000400400038024000B587B000230193F0
:1007A800029303930493059302680E4B9A4202D076
:1007B80007B05DF804FB002300930B4B1A6B42F063
:1007C80002021A631B6B03F002030093009B0123D0
:1007D800019302230293059301A9044800F0EEFB5C
:1007E800E6E700BF00040040003802400004024071
:1007F80000B58FB000230A930B930C930D930893C5
:100808000993019302930393049305930693079323
:100818002248234A026053224260836040F2F31266
:10082800C26003618023836101F046FA30BB4FF454
:1008380080530A930AA9194801F049FB08BB1748D5
:1008480001F066FA00BB00230893099308A913482E
:1008580001F04EFCD8B960230193002302930222D1
:1008680003920593082201A90C4801F0B5FA88B94A
:100878000A48FFF791FF0FB05DF804FBFFF706FE8B
:10088800D5E7FFF703FEDAE7FFF700FEDBE7FFF740
:10089800FDFDE0E7FFF7FAFDEAE700BFB80000203A
:1008A8000004004008B50A480A4B03604FF4E133DE
:1008B800436000238360C36003610C22426183614B
:1008C800C36101F043FD00B908BDFFF7DFFDFBE799
:1008D800000100200010014010B588B000230393E8
:1008E8000493059306930793026803F1804303F585
:1008F80088339A4201D008B010BD0024019403F552
:1009080094335A6C42F010025A645A6C02F0100286
:100918000192019A02941A6B42F001021A631B6B4E
:1009280003F001030293029B4FF4C0630393022375
:100938000493032306930723079303A9054800F0AC
:100948003DFB22460421252000F080FA252000F0F6
:10095800B5FAD0E700000240DFF834D0FFF7A0FE78
:100968000C480D490D4A002302E0D458C450043302
:10097800C4188C42F9D30A4A0A4C002301E01360D8
:100988000432A242FBD302F08FF8FFF7D5FD70477F
:10099800000002200000002024000020DC2B0008BA
:1009A800240000204C010020FEE7000010B504469A
:1009B8000E4B1A784FF47A73B3FBF2F30C4A1068B3
:1009C800B0FBF3F000F088FA68B90F2C01D90120C8
:1009D8000AE0002221464FF0FF3000F037FA054BBD
:1009E8001C60002000E0012010BD00BF1C0000209A
:1009F800180000202000002008B50B4B1A6842F4AC
:100A080000721A601A6842F480621A601A6842F426
:100A180080721A60032000F007FA0F20FFF7C6FF64
:100A2800FFF7F0FD002008BD003C0240034A1168B2
:100A3800034B1B780B441360704700BF480100202C
:100A48001C000020014B1868704700BF48010020B7
:100A580038B50446FFF7F6FF0546B4F1FF3F02D06C
:100A6800044B1B781C44FFF7EDFF401BA042FAD350
:100A780038BD00BF1C000020002800F0A18038B558
:100A8800044690F82030D3B12268136843F001037C
:100A98001360FFF7D7FF054623685A6812F0010F65
:100AA80010D1FFF7CFFF401B0A28F5D9636A43F43A
:100AB80000336362052384F82030012038BDFFF736
:100AC800E1FBE1E71A6822F002021A60FFF7BAFFB9
:100AD800054623685A6812F0020F0DD0FFF7B2FFDF
:100AE800401B0A28F5D9636A43F40033636205237F
:100AF80084F820300120E1E7227E012A3DD01A68DF
:100B080022F080021A60637E012B3BD022681368B2
:100B180023F040031360A37E012B39D022681368A9
:100B280023F020031360E37E012B37D0226813687B
:100B380043F010031360237F012B35D0226813681C
:100B480023F008031360637F012B33D022681368F6
:100B580023F004031360A368E26813432269134374
:100B6800626913436268013A21681343CB6100202C
:100B78006062012384F82030A0E71A6842F08002FE
:100B88001A60C0E72268136843F040031360C2E7A5
:100B98002268136843F020031360C4E722681368CF
:100BA80023F010031360C6E72268136843F00803B4
:100BB8001360C8E72268136843F004031360CAE7A8
:100BC80001207047704770477047704770477047FB
:100BD80070477047704770477047704770472DE9F6
:100BE800F84F054603685C69D3F804809F68D3F81A
:100BF8000CB0D3F810A0D3F8189014F001063BD02D
:100C080017F0010616D001229A6017F0020F08D1DA
:100C180017F0040F0CD117F0080606D04FF48056D1
:100C280008E0FFF7CFFF002604E0FFF7CEFF01E062
:100C38004FF4006617F4807F0DD02B684FF4807254
:100C48009A6017F4007F40F0868017F4806F00F0F8
:100C5800868046F4005617F4803F0DD02B684FF479
:100C680080329A6017F4003F40F0838017F4802F99
:100C780000F0838046F4004614F0080F07D01BF0FC
:100C8800100F04D046F400762B681022DA6014F0B6
:100C9800040F02D01BF0080F79D114F0020F04D012
:100CA8002B68DB6813F0030F78D114F0400F07D0DE
:100CB8001AF0100F04D046F480662B6810221A61CF
:100CC80014F0200F02D01AF0080F6BD114F0100F97
:100CD80004D02B681B6913F0030F6AD114F4003F8A
:100CE80002D018F0100F68D114F4803F02D018F029
:100CF800080F69D114F4004F7AD018F0040F74D09B
:100D080014F4807F04D019F0010F01D046F00106D9
:100D180014F4007F04D019F0020F01D046F0020647
:100D280014F4806F04D019F0040F01D046F00406C3
:100D380014F4006F59D019F0700956D0B9F1400F6A
:100D480065D058D8B9F1200F5ED0B9F1300F42D133
:100D580046F0200644E02846FFF735FF7BE717F406
:100D6800006F02D046F4804675E72846FFF72EFF4D
:100D780071E72846FFF728FF7EE717F4002F02D017
:100D880046F4803678E72846FFF721FF74E72B689A
:100D98000822DA602846FFF71CFF7EE72846FFF79F
:100DA80017FF82E72B6808221A612846FFF713FF0E
:100DB8008CE72846FFF70EFF90E72B6810225A6051
:100DC8002846FFF709FF8FE72B6808225A60284654
:100DD800FFF703FF8EE7B9F1100F01D146F00806BF
:100DE8002A68936923F0700393612B6804225A6080
:100DF8009EB9BDE8F88FB9F1500F0BD0B9F1600F6B
:100E0800EED146F48076EBE746F01006E8E746F0C8
:100E18004006E5E746F08006E2E76B6A33436B621B
:100E28002846FFF7DBFEE4E7074AD36823F4E063CC
:100E38001B041B0C000200F4E060034343F0BF6393
:100E480043F40033D360704700ED00E000B5194B60
:100E5800DB68C3F30223C3F1070CBCF1040F28BFFE
:100E68004FF0040C03F1040EBEF1060F18D9033B32
:100E78004FF0FF3E0EFA0CFC21EA0C0199400EFAE5
:100E880003FE22EA0E020A4300280BDB1201D2B24B
:100E980000F1604000F5614080F800235DF804FB34
:100EA8000023E5E700F00F001201D2B2024B1A54FA
:100EB800F4E700BF00ED00E014ED00E0002807DBD8
:100EC80000F01F02400901239340024A42F82030F3
:100ED800704700BF00E100E00138B0F1807F0BD21D
:100EE8004FF0E0235861054AF02182F823100020D2
:100EF800986107221A6170470120704700ED00E0F1
:100F080070B50446866DFFF79DFD94F83530DBB269
:100F1800022B06D080236365002384F83430012037
:100F280070BD05462268136823F016031360226813
:100F3800536923F080035361236CE3B1226813687B
:100F480023F0080313602268136823F00103136079
:100F580023681B6813F0010F11D0FFF773FD431BC3
:100F6800052BF5D920236365032084F83500002379
:100F780084F83430D4E7A36C002BDFD1E3E7E26DCB
:100F88003F239340B360012384F83530002084F870
:100F98003400C5E790F83530DBB2022B03D080234C
:100FA800436501207047052380F8353002681368CF
:100FB80023F00103136000207047000000230F2B6B
:100FC80000F2E98070B582B065E085684FEA430EAB
:100FD800032404FA0EF425EA0405CC6804FA0EF496
:100FE8002C438460446824EA02044A68C2F300126D
:100FF8009A40224342605CE0DC08083450F8242020
:1010080003F00705AD004FF00F0E0EFA05FE22EAB9
:101018000E0E0A69AA4042EA0E0240F824205CE05B
:10102800072200E0002202FA0EF22A4302345A4D47
:1010380045F82420594A94686FEA0C0224EA0C0502
:101048004E6816F4801F01D04CEA0405534CA56085
:10105800E46802EA04054E6816F4001F01D04CEA61
:1010680004054E4CE560646802EA04054E6816F40F
:10107800003F01D04CEA0405484C656024682240D2
:101088004D6815F4803F01D04CEA0402434C2260BD
:1010980001330F2B7DD801229A400C6804EA020C18
:1010A80032EA0404F4D14C6804F00304013C012C36
:1010B8008BD94A6802F00302032A09D0C4685D008C
:1010C8000322AA4024EA02048A68AA402243C26092
:1010D8004A6802F00302022A8ED004684FEA430EDF
:1010E800032202FA0EF224EA02044A6802F003021A
:1010F80002FA0EF2224302604A6812F4403FC7D057
:1011080000220192264A546C44F480445464526C80
:1011180002F480420192019A9C08A51C1E4A52F8CA
:10112800255003F0030E4FEA8E0E0F2202FA0EF23C
:1011380025EA02051B4A90423FF474AF02F580622B
:1011480090421AD002F58062904218D002F580626F
:10115800904216D002F58062904214D002F5806267
:10116800904212D002F58062904210D002F580625F
:1011780090423FF455AF082255E7012253E7022277
:1011880051E703224FE704224DE705224BE70622E9
:1011980049E702B070BD704700380140003C01408B
:1011A80000380240000002400369194201D00120C2
:1011B8007047002070470AB1816170470904816156
:1011C8007047000008B5054B5B69034200D108BDB4
:1011D800024B5861FFF7F8F8F9E700BF003C0140FF
:1011E800002800F0E08170B582B00446036813F06F
:1011F800010F3BD09F4B9B6803F00C03042B2CD0B2
:101208009C4B9B6803F00C03082B21D06368B3F553
:10121800803F4FD0B3F5A02F52D0964B1A6822F4D6
:1012280080321A601A6822F480221A606368002BE0
:1012380050D0FFF707FC05468E4B1B6813F4003FA0
:1012480014D1FFF7FFFB401B6428F5D90320B1E157
:10125800884B5B6813F4800FD8D0864B1B6813F457
:10126800003F03D06368002B00F09F81236813F0D0
:10127800020F54D07F4B9B6813F00C0F3ED07D4B70
:101288009B6803F00C03082B33D0E368002B68D06D
:10129800794B01221A60FFF7D5FB0546754B1B6891
:1012A80013F0020F54D1FFF7CDFB401B0228F5D9EC
:1012B80003207FE16F4A136843F480331360B5E776
:1012C8006C4B1A6842F480221A601A6842F4803221
:1012D8001A60ABE7FFF7B6FB0546664B1B6813F4CD
:1012E800003FC3D0FFF7AEFB401B6428F5D90320AD
:1012F80060E1604B5B6813F4800FC6D15D4B1B68DF
:1013080013F0020F03D0E368012B40F05081594AD3
:10131800136823F0F803216943EAC10313602368C3
:1013280013F0080F42D063696BB3534B0122C3F823
:10133800802EFFF787FB05464E4B5B6F13F0020FBD
:1013480034D1FFF77FFB401B0228F5D9032031E198
:10135800484A136823F0F803216943EAC10313607C
:10136800DDE7454B00221A60FFF76CFB0546414B51
:101378001B6813F0020FD2D0FFF764FB401B022852
:10138800F5D9032016E13C4B0022C3F8802EFFF765
:1013980059FB0546374B5B6F13F0020F06D0FFF77A
:1013A80051FB401B0228F5D9032003E1236813F001
:1013B800040F77D02F4B1B6C13F0805F33D10023C1
:1013C80001932C4B1A6C42F080521A641B6C03F088
:1013D80080530193019B0125284B1B6813F4807FE0
:1013E80023D0A368012B34D0052B38D0214B1A6F9A
:1013F80022F001021A671A6F22F004021A67A36822
:10140800002B3DD0FFF71EFB06461A4B1B6F13F04F
:10141800020F46D1FFF716FB801B41F28833984232
:10142800F3D90320C6E00025D6E7144A136843F42D
:1014380080731360FFF706FB0646104B1B6813F416
:10144800807FCED1FFF7FEFA801B0228F5D9032052
:10145800B0E0084A136F43F001031367CFE7054B69
:101468001A6F42F004021A671A6F42F001021A67F3
:10147800C5E700BF00380240000047420070004046
:10148800FFF7E0FA0646524B1B6F13F0020F08D025
:10149800FFF7D8FA801B41F288339842F3D903202A
:1014A80088E0EDB9A369002B00F08380484A926870
:1014B80002F00C02082A51D0022B17D0454B00220B
:1014C8001A66FFF7BFFA0446414B1B6813F0007F0A
:1014D80042D0FFF7B7FA001B0228F5D9032069E0CC
:1014E8003B4A136C23F080531364DBE7394B00222B
:1014F8001A66FFF7A7FA0546354B1B6813F0007FFD
:1015080006D0FFF79FFA401B0228F5D9032051E0C7
:10151800E369226A1343626A43EA8213A26A5208A1
:10152800013A43EA0243E26A43EA0263284A536003
:10153800284B01221A66FFF785FA0446244B1B68DC
:1015480013F0007F06D1FFF77DFA001B0228F5D9BA
:1015580003202FE000202DE000202BE0012B2BD0D2
:101568001B4B5B6803F48001E269914226D103F0CA
:101578003F02216A8A4223D1616A47F6C0721A4043
:10158800B2EB811F1ED103F44031A26A5208013A1E
:10159800B1EB024F18D103F07063E26AB3EB026F4C
:1015A80014D1002006E001207047012002E001204C
:1015B80000E0002002B070BD0120FBE70120F9E740
:1015C8000120F7E70120F5E70120F3E70120F1E723
:1015D800003802400000474208B5334B9B6803F0CF
:1015E8000C03042B5BD0082B5BD12F4B5A6802F0FD
:1015F8003F025B6813F4800F2CD02B4B5868C0F364
:1016080088104FEA401CBCEB000C6EEB0E0E4FEA44
:101618008E1343EA9C634FEA8C11B1EB0C0163EB28
:101628000E03DB0043EA5173C90011EB000C43F1D0
:101638000003590200234FEA4C2041EADC51FEF72F
:101648009FFD194B5B68C3F3014301335B00B0FB9B
:10165800F3F027E0144B5868C0F388104FEA401C99
:10166800BCEB000C6EEB0E0E4FEA8E1343EA9C6344
:101678004FEA8C11B1EB0C0163EB0E03DB0043EA7C
:101688005173C90011EB000C43F1000399020023C8
:101698004FEA8C2041EA9C51FEF772FDD1E70348DE
:1016A80000E0034808BD00BF0038024000127A007D
:1016B8000024F400002800F09B8070B50D46044615
:1016C8004F4B1B6803F007038B4208D2CBB24C4A3E
:1016D8001370136803F007038B4240F08B80236874
:1016E80013F0020F17D013F0040F04D0454A936883
:1016F80043F4E0539360236813F0080F04D0414A81
:10170800936843F4604393603E4A936823F0F00380
:10171800A1680B439360236813F0010F32D063680C
:10172800012B21D09A1E012A25D9364A126812F0B7
:10173800020F61D033498A6822F0030213438B6099
:10174800FFF780F906462F4B9B6803F00C0362688D
:10175800B3EB820F16D0FFF775F9801B41F288337F
:101768009842F0D9032042E0264A126812F4003F5A
:10177800E0D101203BE0234A126812F0007FD9D162
:10178800012034E01E4B1B6803F00703AB4207D966
:10179800EAB21B4B1A701B6803F00703AB422DD14A
:1017A800236813F0040F06D0164A936823F4E05315
:1017B800E1680B439360236813F0080F07D0114AC0
:1017C800936823F46043216943EAC1039360FFF7F8
:1017D80003FF0C4B9B68C3F303130B4AD35CD8403D
:1017E8000A4B18600A4B1868FFF7E0F8002070BD34
:1017F800012070470120FAE70120F8E70120F6E709
:10180800003C024000380240B42B000818000020B9
:1018180020000020014B1868704700BF1800002006
:1018280008B5FFF7F7FF044B9B68C3F38223034A0D
:10183800D35CD84008BD00BF00380240C42B000864
:1018480008B5FFF7E7FF044B9B68C3F34233034A2D
:10185800D35CD84008BD00BF00380240C42B000844
:1018680030B4036A026A22F00102026242688469A3
:1018780024F0730C0C6844EA0C0423F0020C8B6807
:1018880043EA0C03114DA84203D005F58065A84230
:1018980005D123F00803CD682B4323F004030B4D37
:1018A800A84203D005F58065A84207D122F440720A
:1018B8004D6945EA020C8A6942EA0C024260846179
:1018C8004A684263036230BC704700BF00000140B1
:1018D80030B4036A026A22F4807202624268C46900
:1018E80024F0730C0C6844EA0C0523F400738C682C
:1018F80043EA0423114CA04203D004F58064A042BB
:1019080006D123F40063CC6843EA042323F48063FC
:101918000A4CA04203D004F58064A04207D122F407
:1019280040524C6942EA04128C6942EA041242604D
:10193800C5614A68C263036230BC70470000014059
:1019480030B4036A026A22F4805202624468C269AF
:1019580022F4E6420D6842EA052223F400538D681A
:1019680043EA0533094DA84203D005F58065A8422E
:1019780004D124F480444D6944EA85144460C2616A
:101988004A680264036230BC704700BF000001402F
:1019980010B4036A046A24F001040462846924F020
:1019A800F00C4CEA021223F00A030B438261036233
:1019B8005DF8044B704710B4036A046A24F01004FD
:1019C8000462846924F4704C4CEA023223F0A003C8
:1019D80043EA0113826103625DF8044B7047836830
:1019E80023F070030B4343F0070383607047000044
:1019F80090F83D30DBB2012B37D1022380F83D301F
:101A08000268D36843F00103D3600368194A93421C
:101A180020D0B3F1804F1DD0A2F57C42934219D05B
:101A280002F58062934215D002F58062934211D08C
:101A380002F5784293420DD002F57052934209D0D4
:101A4800A2F59432934205D01A6842F001021A6056
:101A5800002070479A6802F00702062A07D01A6821
:101A680042F001021A6000207047012070470020F0
:101A7800704700BF000001407047704770477047CB
:101A8800704770B504460368DE681D6915F0020FDB
:101A980010D016F0020F0DD06FF002021A61012368
:101AA800037703689B6913F0030F5ED0FFF7E6FF27
:101AB8000023237715F0040F12D016F0040F0FD06F
:101AC80023686FF004021A610223237723689B6955
:101AD80013F4407F4FD02046FFF7D0FF0023237731
:101AE80015F0080F12D016F0080F0FD023686FF00A
:101AF80008021A61042323772368DB6913F0030FB4
:101B080040D02046FFF7BAFF0023237715F0100FC7
:101B180012D016F0100F0FD023686FF010021A6160
:101B2800082323772368DB6913F4407F31D02046EC
:101B3800FFF7A4FF0023237715F0010F02D016F05A
:101B4800010F2DD115F0800F02D016F0800F2FD184
:101B580015F0400F02D016F0400F31D115F0200FCC
:101B680002D016F0200F33D170BDFFF786FF204654
:101B7800FFF785FF9CE72046FFF77FFF2046FFF72A
:101B88007EFFABE72046FFF778FF2046FFF777FF99
:101B9800BAE72046FFF771FF2046FFF770FFC9E755
:101BA80023686FF001021A612046FEF73BFCC9E783
:101BB80023686FF080021A61204600F0E0FAC7E758
:101BC80023686FF040021A612046FFF759FFC5E706
:101BD80023686FF020021A61204600F0CFFAC3E7AD
:101BE8000368344A904212D0B0F1804F0FD0A2F56A
:101BF8007C4290420BD002F58062904207D002F5F9
:101C08008062904203D002F57842904203D123F0DB
:101C180070034A681343274A90422AD0B0F1804F94
:101C280027D0A2F57C42904223D002F580629042F0
:101C38001FD002F5806290421BD002F57842904294
:101C480017D002F57052904213D002F5806290428C
:101C58000FD002F5806290420BD0A2F598329042E4
:101C680007D002F58062904203D002F5806290426C
:101C780003D123F44073CA68134323F080034A69ED
:101C8800134303608B68C3620B688362094B9842F5
:101C980003D003F58063984201D10B6903630123E4
:101CA8004361036913F0010F03D0036923F00103B3
:101CB800036170470000014040B310B5044690F836
:101CC8003D30F3B1022384F83D30214651F8040B2E
:101CD800FFF786FF012384F8463084F83E3084F805
:101CE8003F3084F8403084F8413084F8423084F83A
:101CF800433084F8443084F8453084F83D3000207F
:101D080010BD80F83C30FEF70DFDDBE70120704781
:101D180040B310B5044690F83D30F3B1022384F87F
:101D28003D30214651F8040BFFF75AFF012384F890
:101D3800463084F83E3084F83F3084F8403084F8E8
:101D4800413084F8423084F8433084F8443084F8D1
:101D5800453084F83D30002010BD80F83C30FFF756
:101D68008BFEDBE70120704730B4036A026A22F079
:101D7800100202624468826922F4E6420D6842EA6F
:101D8800052223F020038D6843EA0513114DA8426C
:101D980003D005F58065A84206D123F08003CD68FD
:101DA80043EA051323F040030A4DA84203D005F582
:101DB8008065A84207D124F440644D6944EA85044B
:101DC8008D6944EA8504446082614A6882630362DB
:101DD80030BC70470000014038B590F83C30012B0A
:101DE80066D004460D46012380F83C300C2A5AD8A8
:101DF800DFE802F0075959591B59595930595959AF
:101E080044000068FFF72CFD2268936943F008033B
:101E180093612268936923F00403936122689369AC
:101E280029690B43936100203EE00068FFF79CFF9F
:101E38002268936943F4006393612268936923F4E9
:101E48008063936122689369296943EA0123936156
:101E5800002029E00068FFF73BFD2268D36943F0C2
:101E68000803D3612268D36923F00403D36122688D
:101E7800D36929690B43D361002015E00068FFF797
:101E88005FFD2268D36943F40063D3612268D36994
:101E980023F48063D3612268D369296943EA012363
:101EA800D361002000E00120002384F83C3038BDD5
:101EB8000220FCE710B4846824F47F4C42EA032231
:101EC8000A4342EA0C0282605DF8044B704790F8BE
:101ED8003C30012B78D010B50446012380F83C3003
:101EE800022380F83D300268936823F47F4323F08F
:101EF800770393600B68602B4CD029D8402B54D0C3
:101F08000CD9502B22D1CA6849680068FFF740FDF8
:101F180050212068FFF763FD002005E0202B0DD03D
:101F280009D9302B0AD00120012384F83D30002341
:101F380084F83C3010BD0BB1102B05D11946206830
:101F4800FFF74DFD0020EFE70120EDE70120EBE76B
:101F5800B3F5805F34D0B3F5005F0CD1CB684A6825
:101F680089680068FFF7A6FF2268936843F48043F6
:101F780093600020D8E7702B24D1CB684A68896821
:101F88000068FFF797FF2268936843F07703936030
:101F98000020C9E7CA6849680068FFF70CFD60219E
:101FA8002068FFF71CFD0020BEE7CA684968006882
:101FB800FFF7EEFC40212068FFF711FD0020B3E792
:101FC8000020B1E70120AFE70220704701F01F01B0
:101FD8004FF0010C0CFA01FC036A23EA0C030362BC
:101FE800036A8A40134303627047000010B5044631
:101FF8000846002942D194F83E30DBB2013B18BFB5
:102008000123002B6ED1002851D1022384F83E30E1
:10201800012201462068FFF7D9FF2368334A93421B
:1020280003D002F58062934203D15A6C42F4004215
:102038005A6423682D4A934249D0B3F1804F46D061
:10204800A2F57C42934242D002F5806293423ED090
:1020580002F5806293423AD002F57842934236D034
:1020680002F57052934232D0A2F5943293422ED0A8
:102078001A6842F001021A60002032E0042908D0F0
:1020880008290DD094F84130DBB2013B18BF012379
:10209800B7E794F83F30DBB2013B18BF0123B0E744
:1020A80094F84030DBB2013B18BF0123A9E70428AC
:1020B80005D0082807D0022384F84130A8E7022376
:1020C80084F83F30A4E7022384F84030A0E79A68F8
:1020D80002F00702062A07D01A6842F001021A60C5
:1020E800002010BD0120FCE70020FAE700000140B5
:1020F80090F83C20012A3DD010B40346012280F814
:102108003C20022280F83D2002685068946820F044
:10211800700C086840EA0C0050601A681648824241
:102128001AD0B2F1804F17D0A0F57C40824213D06C
:1021380000F5806082420FD000F5806082420BD0AB
:1021480000F57840824207D000F57050824203D0F3
:10215800A0F59430824204D124F0800449682143D8
:102168009160012283F83D20002083F83C005DF84F
:10217800044B7047022070470000014070477047C9
:10218800026802F10C0353E8003F23F490730C3209
:1021980042E800310029F3D1026802F1140353E840
:1021A800003F23F00103143242E800310029F3D143
:1021B800036B012B05D0202380F8423000230363F2
:1021C8007047026802F10C0353E8003F23F0100344
:1021D8000C3242E800310029F3D1ECE790F84130A5
:1021E800DBB2212B01D0022070478368B3F5805FF2
:1021F80017D0036A5A1C02621A7803685A60C38CA3
:102208009BB2013B9BB2C3844BB90268D36823F0ED
:102218008003D3600268D36843F04003D360002092
:1022280070470369002BE4D1036A1B880268C3F373
:1022380008035360036A02330362E0E710B50446FB
:102248000268136923F44053C1680B431361836820
:1022580002691A4343691A43C3691A430168CB6880
:1022680023F4164323F00C031343CB60026853692D
:1022780023F4407381690B4353610368314A9342E5
:1022880006D002F58062934202D0FFF7C9FA01E056
:10229800FFF7D6FAE369B3F5004F29D000210318F8
:1022A80049411B1841F10001C90041EA5371DB00A3
:1022B800181863684FEA83024FEA937341F10001EB
:1022C800FDF75EFF204AA2FB00314909642303FBA6
:1022D80011031B013233A2FB03235B0903F0F00255
:1022E80002EB011203F00F03216813448B6010BD49
:1022F8000023021843EB0301121841F10001C90041
:1023080041EA5271D200101841F100016268921836
:102318005B41FDF735FF0C4AA2FB003149096423F4
:1023280003FB1103DB003233A2FB03235B095A00D2
:1023380002F4F87202EB011203F007032168134458
:102348008B60D4E7001001401F85EB5160B310B5D6
:10235800044690F8413013B3242384F841302268AE
:10236800D36823F40053D3602046FFF767FF226841
:10237800136923F4904313612268536923F02A03F5
:1023880053612268D36843F40053D360002060642B
:10239800202384F8413084F84230606310BD80F80F
:1023A8004030FEF799FAD7E70120704790F841309E
:1023B800DBB2202B10D189B192B101628284C28430
:1023C80000234364212280F841200168CA6842F052
:1023D8008002CA6018467047022070470120704783
:1023E80001207047704708B50168CA6822F04002AA
:1023F800CA60202280F84120FFF7F4FF002008BDC2
:10240800704708B5806B0023C385C384FFF7F8FFC6
:1024180008BD704790F84230DBB2222B69D183683F
:10242800B3F5805F4FD0826AB3F5805F04D0002B8C
:1024380056D10369002B53D103685B681370836A14
:1024480001338362C38D9BB2013B9BB2C385002BD2
:1024580051D100B583B00268D36823F02003D3605C
:102468000268D36823F48073D3600268536923F049
:1024780001035361202380F8423000234363036B38
:10248800012B33D100230363026802F10C0353E8E4
:10249800003F23F010030C3242E800310029F3D149
:1024A80003681A6812F0100F06D0002201921A6809
:1024B80001925B680193019B818DFFF7AAFF0020C1
:1024C80003B05DF804FB0269002AACD1826A036894
:1024D8005B68C3F308031380836A02338362B1E73E
:1024E80003685B6803F07F031370A8E7FDF79CFFA0
:1024F800E5E70220704700207047000030B583B040
:10250800044602681368D068516913F00F0505D1B5
:1025180013F0200F02D010F0200F19D12DB111F0B7
:10252800010119D110F4907F16D1216B01297DD0BA
:1025380013F0800F03D010F0800F40F0198113F0D2
:10254800400F03D010F0400F40F0168103B030BDAB
:102558002046FFF75FFFF9E713F0010F06D010F4EC
:10256800807F03D0626C42F00102626413F0040FB2
:1025780004D019B1626C42F00202626413F0020FD7
:1025880004D019B1626C42F00402626413F0080FBF
:1025980007D010F0200F00D119B1626C42F0080288
:1025A8006264626C002AD1D013F0200F02D010F0C0
:1025B800200F29D123685B6903F04003626C12F095
:1025C800080F00D163B32046FFF7DAFD23685B6983
:1025D80013F0400F20D0226802F1140353E8003FA3
:1025E80023F04003143242E800310029F3D1E36BB1
:1025F80073B1634A1A65E06BFEF7CCFC0028A5D0DE
:10260800E06B036D9847A1E72046FFF703FFD1E78A
:102618002046FFF7F5FE99E72046FFF7F1FE95E71C
:102628002046FFF7EDFE002363648FE713F0100FD9
:102638003FF47EAF10F0100F3FF47AAF0023019300
:102648001368019353680193019B536913F0400F7A
:1026580052D0E26B13685B689BB2002B3FF476AFF5
:10266800A18D99427FF672AFE385D369B3F5807F78
:1026780037D0226802F10C0353E8003F23F480733B
:102688000C3242E800310029F3D1226802F1140328
:1026980053E8003F23F00103143242E800310029D7
:1026A800F3D1226802F1140353E8003F23F04003FA
:1026B800143242E800310029F3D1202384F8423053
:1026C80000232363226802F10C0353E8003F23F040
:1026D80010030C3242E800310029F3D1E06BFEF719
:1026E8000FFC02236363A18DE38D9BB2C91A89B2E3
:1026F8002046FFF78EFE29E7A18DE38D9BB2C91A0C
:1027080089B2E38D9BB2002B3FF420AF00293FF440
:102718001DAF226802F10C0353E8003F23F49073C5
:102728000C3242E800300028F3D1226802F1140389
:1027380053E8003F23F00103143242E80030002838
:10274800F3D1202384F8423000232363226802F166
:102758000C0353E8003F23F010030C3242E800302A
:102768000028F3D1022363632046FFF752FEEDE60B
:102778002046FFF733FDE9E62046FFF734FEE5E69D
:102788000B24000881628285C285002343642223CA
:1027980080F84230036923B10268D36843F4807338
:1027A800D3600268536943F0010353610268D36838
:1027B80043F02003D3600020704708B590F84230FA
:1027C800DBB2202B08D149B10AB9012008BD00238A
:1027D8000363FFF7D7FFF9E70220F7E70120F5E7E2
:1027E8002DE9F047089E0D4604460F46002B4AD1B6
:1027F8008A42944665D9B2FA82F343B102FA03FCDD
:10280800C3F120029F4020FA02F217439C404FEA8E
:102818001C4E1FFA8CF5B7FBFEF1220C0EFB11774C
:1028280042EA074201FB05F090420AD91CEB02027A
:1028380001F1FF3780F01C81904240F21981023982
:102848006244121AA4B2B2FBFEF00EFB102244EA54
:10285800024400FB05F5A5420AD91CEB040400F16B
:10286800FF3280F00781A54240F2048164440238B7
:1028780040EA0140641B00211EB1DC400023C6E988
:102888000043BDE8F0878B4208D9002E00F0ED80A8
:102898000021C6E900050846BDE8F087B3FA83F1D0
:1028A800002949D1AB4202D3824200F2F880841A4F
:1028B80065EB030201201746002EE2D0C6E9004767
:1028C800DFE702B9FFDEB2FA82F3002B40F0908016
:1028D8008A1A4FEA1C471FFA8CFE0121B2FBF7F552
:1028E80007FB1520220C42EA00420EFB05F090423D
:1028F80008D91CEB020205F1FF3802D2904200F21F
:10290800CB804546121AA4B2B2FBF7F007FB10229F
:1029180044EA02440EFB00FEA64508D91CEB040459
:1029280000F1FF3202D2A64500F2BB801046A4EBAC
:102938000E0440EA05409FE7C1F120078B4022FAC8
:1029480007FC4CEA030C05FA01F420FA07F3FD40F2
:102958004FEA1C492343B5FBF9F81FFA8CFE09FB23
:1029680018551C0C44EA054408FB0EF5A54202FA6A
:1029780001F200FA01F00BD91CEB040408F1FF3A4C
:1029880080F08880A54240F28580A8F1020864445E
:10299800641B9DB2B4FBF9F309FB134445EA0444F4
:1029A80003FB0EFEA64508D91CEB040403F1FF3512
:1029B8006CD2A6456AD9023B644443EA0843A3FBA8
:1029C8000295A4EB0E04AC42C846AE4656D353D08B
:1029D80056B1B0EB080264EB0E0404FA07F7CA40DC
:1029E800CC401743C6E9007418460021BDE8F087BB
:1029F800C3F1200102FA03FC20FA01F225FA01F1E1
:102A08009D402A434FEA1C471FFA8CFEB1FBF7F0A2
:102A180007FB1015110C41EA054100FB0EF58D422C
:102A280004FA03F408D91CEB010100F1FF382FD296
:102A38008D422DD902386144491B92B2B1FBF7F59A
:102A480007FB151142EA014205FB0EF1914208D934
:102A58001CEB020205F1FF3816D2914214D9023D4F
:102A68006244521A45EA004138E73146304608E7E1
:102A78003946E6E61046FBE64845A9D2B9EB020816
:102A880065EB0C0E013BA3E74546EAE72B4694E7C6
:102A98004046D1E7D0467BE7023D624432E708462C
:102AA8000AE76444023842E770B50D4E0D4D761BB7
:102AB800B61006D0002455F8043B01349847A642C6
:102AC800F9D1094E094D761B00F064F8B61006D00E
:102AD800002455F8043B01349847A642F9D170BD4B
:102AE800D42B0008D42B0008D82B0008D42B0008BE
:102AF800830730B548D0541E002A3FD0CAB20346D7
:102B080001E0013C3AD303F8012B9D07F9D1032CCE
:102B18002DD9CDB245EA05250F2C45EA054536D90C
:102B2800A4F1100222F00F0C03F1200EE6444FEA44
:102B3800121C03F1100242E9045542E90255103211
:102B48007245F8D10CF1010214F00C0F03EB0212DC
:102B580004F00F0C13D0ACF1040323F00303043387
:102B6800134442F8045B9342FBD10CF003042CB1EC
:102B7800C9B21C4403F8011B9C42FBD130BD64461A
:102B88001346002CF4D1F9E703461446BFE71A466A
:102B9800A446E0E7F8B500BFF8BC08BC9E467047FD
:0C2BA800F8B500BFF8BC08BC9E467047A2
:102BB40000000000000000000102030406070809E9
:082BC4000000000001020304FF
:082BCC001CFCFF7F010000006A
:042BD40025020008CE
:042BD800FD010008F3
:102BDC006F6666006F6E000077726F6E6720636FB2
:102BEC006D6D616E640000000024F40001000000B3
:042BFC0010000000C5
:040000050800096185
:00000001FF
