:020000040800F2
:1000000000000220FD030008D1030008D30300080C
:10001000D5030008D7030008D9030008000000003A
:10002000000000000000000000000000DB030008EA
:10003000DD03000800000000DF030008E103000802
:100040004D0400084D0400084D0400084D0400084C
:100050004D0400084D0400084D0400084D0400083C
:100060004D0400084D0400084D0400084D0400082C
:100070004D0400084D0400084D0400084D0400081C
:100080004D0400084D0400084D0400084D0400080C
:100090004D0400084D0400084D0400084D040008FC
:1000A0004D0400084D0400084D0400084D040008EC
:1000B0004D0400084D0400084D0400084D040008DC
:1000C0004D0400084D0400084D0400084D040008CC
:1000D0004D0400084D0400084D0400084D040008BC
:1000E0004D0400084D0400084D0400084D040008AC
:1000F0004D0400084D0400084D0400084D0400089C
:100100004D0400084D0400084D0400084D0400088B
:100110004D0400084D0400084D0400084D0400087B
:100120004D0400084D0400084D0400084D0400086B
:100130004D0400084D0400084D0400084D0400085B
:100140004D0400084D0400084D0400084D0400084B
:100150004D0400084D0400084D0400084D0400083B
:100160004D0400084D0400084D0400084D0400082B
:100170004D0400084D0400084D0400080000000074
:080180004D0400084D040008C5
:1001880053B94AB9002908BF00281CBF4FF0FF31F6
:100198004FF0FF3000F00CB8ADF1080C6DE904CE5B
:1001A80000F02CFEDDF804E0DDE9022304B070471E
:1001B800704700BF0348044B834202D0034B03B18E
:1001C800184770470C0000200C00002000000000B9
:1001D8000548064B1B1AD90F01EBA301491002D0A1
:1001E800034B03B1184770470C0000200C00002097
:1001F8000000000010B5064C237843B9FFF7DAFF7A
:10020800044B13B10448AFF300800123237010BDE1
:100218000C00002000000000B811000808B5054BCC
:100228001BB105490548AFF30080BDE80840FFF75A
:10023800CFBF00BF0000000010000020B811000868
:1002480030B589B000240394049405940694079467
:100258000194134B1A6B42F080021A631A6B02F076
:1002680080020192019A02941A6B42F004021A6306
:100278001B6B03F004030293029B0A4D22462021C4
:10028800284600F09BFA2023039301230493059446
:10029800069403A9284600F09BF909B030BD00BFB9
:1002A800003802400008024072B6FEE700B595B07B
:1002B8003022002108A800F029FF002303930493AB
:1002C8000593069307930193204A116C41F08051DE
:1002D8001164126C02F080520192019A02931C4B35
:1002E8001A6842F480421A601B6803F48043029340
:1002F800029B012308934FF48033099302220E9244
:100308004FF480030F9304231093A82111911292A4
:10031800139308A800F058FA98B90F2303930223FF
:100328000493002305934FF4A05306934FF480538E
:100338000793052103A800F0B1FC20B915B05DF8BA
:1003480004FBFFF7B1FFFFF7AFFF00BF0038024023
:100358000070004008B500F09DF8FFF7A7FFFFF711
:100368006FFF4FF4FA7000F0C1F8084C002220210A
:10037800204600F023FA4FF4FA7000F0B7F8012293
:100388002021204600F01AFAEBE700BF00080240DF
:1003980082B0002100910B4B5A6C42F480425A649F
:1003A8005A6C02F480420092009A01911A6C42F051
:1003B80080521A641B6C03F080530193019B02B0B6
:1003C800704700BF00380240FEE7FEE7FEE7FEE7A1
:1003D800FEE770477047704708B500F075F808BD2C
:1003E800034AD2F8883043F47003C2F88830704763
:1003F80000ED00E0DFF834D0FFF7F2FF0C480D49BC
:100408000D4A002302E0D458C4500433C4188C4267
:10041800F9D30A4A0A4C002301E013600432A242CD
:10042800FBD300F04FFEFFF795FF70470000022056
:10043800000000200C000020F01100080C00002033
:100448002C000020FEE7000010B504460E4B1A7879
:100458004FF47A73B3FBF2F30C4A1068B0FBF3F075
:1004680000F0A2F868B90F2C01D901200AE0002297
:1004780021464FF0FF3000F05FF8054B1C6000206C
:1004880000E0012010BD00BF040000200000002093
:100498000800002008B50B4B1A6842F400721A6075
:1004A8001A6842F480621A601A6842F480721A600C
:1004B800032000F02FF80F20FFF7C6FFFFF768FFB3
:1004C800002008BD003C0240034A1168034B1B781A
:1004D8000B441360704700BF280000200400002070
:1004E800014B1868704700BF2800002038B5044643
:1004F800FFF7F6FF0546B4F1FF3F02D0044B1B7827
:100508001C44FFF7EDFF401BA042FAD338BD00BFE3
:1005180004000020074AD36823F4E0631B041B0C83
:10052800000200F4E060034343F0BF6343F4003388
:10053800D360704700ED00E000B5194BDB68C3F3EA
:100548000223C3F1070CBCF1040F28BF4FF0040CC1
:1005580003F1040EBEF1060F18D9033B4FF0FF3E1E
:100568000EFA0CFC21EA0C0199400EFA03FE22EA6D
:100578000E020A4300280BDB1201D2B200F16040E0
:1005880000F5614080F800235DF804FB0023E5E7EF
:1005980000F00F001201D2B2024B1A54F4E700BF68
:1005A80000ED00E014ED00E00138B0F1807F0BD2DF
:1005B8004FF0E0235861054AF02182F8231000200B
:1005C800986107221A6170470120704700ED00E02A
:1005D80000230F2B00F2E98070B582B065E08568D2
:1005E8004FEA430E032404FA0EF425EA0405CC6806
:1005F80004FA0EF42C438460446824EA02044A682E
:10060800C2F300129A40224342605CE0DC080834DE
:1006180050F8242003F00705AD004FF00F0E0EFA36
:1006280005FE22EA0E0E0A69AA4042EA0E0240F8C6
:1006380024205CE0072200E0002202FA0EF22A439E
:1006480002345A4D45F82420594A94686FEA0C023E
:1006580024EA0C054E6816F4801F01D04CEA040504
:10066800534CA560E46802EA04054E6816F4001FBE
:1006780001D04CEA04054E4CE560646802EA0405C2
:100688004E6816F4003F01D04CEA0405484C6560FA
:10069800246822404D6815F4803F01D04CEA0402DA
:1006A800434C226001330F2B7DD801229A400C68FD
:1006B80004EA020C32EA0404F4D14C6804F003049E
:1006C800013C012C8BD94A6802F00302032A09D0A5
:1006D800C4685D000322AA4024EA02048A68AA408A
:1006E8002243C2604A6802F00302022A8ED00468DC
:1006F8004FEA430E032202FA0EF224EA02044A6881
:1007080002F0030202FA0EF2224302604A6812F46F
:10071800403FC7D000220192264A546C44F48044DA
:100728005464526C02F480420192019A9C08A51C00
:100738001E4A52F8255003F0030E4FEA8E0E0F2280
:1007480002FA0EF225EA02051B4A90423FF474AF02
:1007580002F5806290421AD002F58062904218D069
:1007680002F58062904216D002F58062904214D061
:1007780002F58062904212D002F58062904210D059
:1007880002F5806290423FF455AF082255E70122F6
:1007980053E7022251E703224FE704224DE70522DF
:1007A8004BE7062249E702B070BD704700380140A8
:1007B800003C014000380240000002400AB181615B
:1007C8007047090481617047002800F0E08170B526
:1007D80082B00446036813F0010F3BD09F4B9B681F
:1007E80003F00C03042B2CD09C4B9B6803F00C03E8
:1007F800082B21D06368B3F5803F4FD0B3F5A02F05
:1008080052D0964B1A6822F480321A601A6822F481
:1008180080221A606368002B50D0FFF761FE0546FE
:100828008E4B1B6813F4003F14D1FFF759FE401B91
:100838006428F5D90320B1E1884B5B6813F4800F75
:10084800D8D0864B1B6813F4003F03D06368002B95
:1008580000F09F81236813F0020F54D07F4B9B68F0
:1008680013F00C0F3ED07D4B9B6803F00C03082B54
:1008780033D0E368002B68D0794B01221A60FFF768
:100888002FFE0546754B1B6813F0020F54D1FFF776
:1008980027FE401B0228F5D903207FE16F4A136821
:1008A80043F480331360B5E76C4B1A6842F4802236
:1008B8001A601A6842F480321A60ABE7FFF710FE3C
:1008C8000546664B1B6813F4003FC3D0FFF708FECC
:1008D800401B6428F5D9032060E1604B5B6813F482
:1008E800800FC6D15D4B1B6813F0020F03D0E3687D
:1008F800012B40F05081594A136823F0F80321690D
:1009080043EAC1031360236813F0080F42D06369F8
:100918006BB3534B0122C3F8802EFFF7E1FD054668
:100928004E4B5B6F13F0020F34D1FFF7D9FD401B1C
:100938000228F5D9032031E1484A136823F0F80367
:10094800216943EAC1031360DDE7454B00221A60C1
:10095800FFF7C6FD0546414B1B6813F0020FD2D0C6
:10096800FFF7BEFD401B0228F5D9032016E13C4BDA
:100978000022C3F8802EFFF7B3FD0546374B5B6FA7
:1009880013F0020F06D0FFF7ABFD401B0228F5D984
:10099800032003E1236813F0040F77D02F4B1B6C5F
:1009A80013F0805F33D1002301932C4B1A6C42F073
:1009B80080521A641B6C03F080530193019B01253C
:1009C800284B1B6813F4807F23D0A368012B34D0F5
:1009D800052B38D0214B1A6F22F001021A671A6FC3
:1009E80022F004021A67A368002B3DD0FFF778FDB8
:1009F80006461A4B1B6F13F0020F46D1FFF770FD26
:100A0800801B41F288339842F3D90320C6E00025C1
:100A1800D6E7144A136843F480731360FFF760FD48
:100A28000646104B1B6813F4807FCED1FFF758FDA4
:100A3800801B0228F5D90320B0E0084A136F43F061
:100A480001031367CFE7054B1A6F42F004021A67D8
:100A58001A6F42F001021A67C5E700BF003802406A
:100A68000000474200700040FFF73AFD0646524B2F
:100A78001B6F13F0020F08D0FFF732FD801B41F205
:100A880088339842F3D9032088E0EDB9A369002B95
:100A980000F08380484A926802F00C02082A51D07C
:100AA800022B17D0454B00221A66FFF719FD0446A2
:100AB800414B1B6813F0007F42D0FFF711FD001B6C
:100AC8000228F5D9032069E03B4A136C23F08053D0
:100AD8001364DBE7394B00221A66FFF701FD054670
:100AE800354B1B6813F0007F06D0FFF7F9FC401B5D
:100AF8000228F5D9032051E0E369226A1343626AA8
:100B080043EA8213A26A5208013A43EA0243E26ABC
:100B180043EA0263284A5360284B01221A66FFF70A
:100B2800DFFC0446244B1B6813F0007F06D1FFF757
:100B3800D7FC001B0228F5D903202FE000202DE068
:100B480000202BE0012B2BD01B4B5B6803F48001AA
:100B5800E269914226D103F03F02216A8A4223D1F9
:100B6800616A47F6C0721A40B2EB811F1ED103F4C6
:100B78004031A26A5208013AB1EB024F18D103F092
:100B88007063E26AB3EB026F14D1002006E0012023
:100B98007047012002E0012000E0002002B070BD93
:100BA8000120FBE70120F9E70120F7E70120F5E73D
:100BB8000120F3E70120F1E7003802400000474236
:100BC80008B5334B9B6803F00C03042B5BD0082B50
:100BD8005BD12F4B5A6802F03F025B6813F4800F19
:100BE8002CD02B4B5868C0F388104FEA401CBCEB44
:100BF800000C6EEB0E0E4FEA8E1343EA9C634FEA2D
:100C08008C11B1EB0C0163EB0E03DB0043EA51736B
:100C1800C90011EB000C43F10003590200234FEA0D
:100C28004C2041EADC51FFF7ABFA194B5B68C3F380
:100C3800014301335B00B0FBF3F027E0144B586825
:100C4800C0F388104FEA401CBCEB000C6EEB0E0E94
:100C58004FEA8E1343EA9C634FEA8C11B1EB0C0107
:100C680063EB0E03DB0043EA5173C90011EB000C80
:100C780043F10003990200234FEA8C2041EA9C517A
:100C8800FFF77EFAD1E7034800E0034808BD00BF3C
:100C98000038024000127A000024F400002800F016
:100CA8009B8070B50D4604464F4B1B6803F0070345
:100CB8008B4208D2CBB24C4A1370136803F0070377
:100CC8008B4240F08B80236813F0020F17D013F08B
:100CD800040F04D0454A936843F4E05393602368B3
:100CE80013F0080F04D0414A936843F460439360BB
:100CF8003E4A936823F0F003A1680B43936023688E
:100D080013F0010F32D06368012B21D09A1E012AFB
:100D180025D9364A126812F0020F61D033498A6821
:100D280022F0030213438B60FFF7DAFB06462F4BD2
:100D38009B6803F00C036268B3EB820F16D0FFF7D1
:100D4800CFFB801B41F288339842F0D9032042E060
:100D5800264A126812F4003FE0D101203BE0234A02
:100D6800126812F0007FD9D1012034E01E4B1B68B5
:100D780003F00703AB4207D9EAB21B4B1A701B6892
:100D880003F00703AB422DD1236813F0040F06D0FC
:100D9800164A936823F4E053E1680B439360236891
:100DA80013F0080F07D0114A936823F460432169B0
:100DB80043EAC1039360FFF703FF0C4B9B68C3F33F
:100DC80003130B4AD35CD8400A4B18600A4B1868C7
:100DD800FFF73AFB002070BD012070470120FAE7B9
:100DE8000120F8E70120F6E7003C02400038024005
:100DF800D011000800000020080000202DE9F0476D
:100E0800089E0D4604460F46002B4AD18A42944656
:100E180065D9B2FA82F343B102FA03FCC3F12002A6
:100E28009F4020FA02F217439C404FEA1C4E1FFADB
:100E38008CF5B7FBFEF1220C0EFB117742EA074254
:100E480001FB05F090420AD91CEB020201F1FF37C1
:100E580080F01C81904240F2198102396244121AD2
:100E6800A4B2B2FBFEF00EFB102244EA024400FBDF
:100E780005F5A5420AD91CEB040400F1FF3280F005
:100E88000781A54240F204816444023840EA0140E7
:100E9800641B00211EB1DC400023C6E90043BDE805
:100EA800F0878B4208D9002E00F0ED800021C6E9BA
:100EB80000050846BDE8F087B3FA83F1002949D157
:100EC800AB4202D3824200F2F880841A65EB030237
:100ED80001201746002EE2D0C6E90047DFE702B935
:100EE800FFDEB2FA82F3002B40F090808A1A4FEAB4
:100EF8001C471FFA8CFE0121B2FBF7F507FB1520F2
:100F0800220C42EA00420EFB05F0904208D91CEB85
:100F1800020205F1FF3802D2904200F2CB8045462A
:100F2800121AA4B2B2FBF7F007FB102244EA0244FB
:100F38000EFB00FEA64508D91CEB040400F1FF32A5
:100F480002D2A64500F2BB801046A4EB0E0440EA8C
:100F580005409FE7C1F120078B4022FA07FC4CEAC5
:100F6800030C05FA01F420FA07F3FD404FEA1C4987
:100F78002343B5FBF9F81FFA8CFE09FB18551C0C26
:100F880044EA054408FB0EF5A54202FA01F200FA0C
:100F980001F00BD91CEB040408F1FF3A80F08880BB
:100FA800A54240F28580A8F102086444641B9DB202
:100FB800B4FBF9F309FB134445EA044403FB0EFEB2
:100FC800A64508D91CEB040403F1FF356CD2A645ED
:100FD8006AD9023B644443EA0843A3FB0295A4EBA5
:100FE8000E04AC42C846AE4656D353D056B1B0EB09
:100FF800080264EB0E0404FA07F7CA40CC40174312
:10100800C6E9007418460021BDE8F087C3F1200145
:1010180002FA03FC20FA01F225FA01F19D402A4365
:101028004FEA1C471FFA8CFEB1FBF7F007FB1015BF
:10103800110C41EA054100FB0EF58D4204FA03F458
:1010480008D91CEB010100F1FF382FD28D422DD9B0
:1010580002386144491B92B2B1FBF7F507FB151141
:1010680042EA014205FB0EF1914208D91CEB02024B
:1010780005F1FF3816D2914214D9023D6244521A42
:1010880045EA004138E73146304608E73946E6E6A2
:101098001046FBE64845A9D2B9EB020865EB0C0EF1
:1010A800013BA3E74546EAE72B4694E74046D1E7EC
:1010B800D0467BE7023D624432E708460AE76444CB
:1010C800023842E770B50D4E0D4D761BB61006D0AE
:1010D800002455F8043B01349847A642F9D1094E3B
:1010E800094D761B00F064F8B61006D0002455F8B8
:1010F800043B01349847A642F9D170BDE8110008B5
:10110800E8110008EC110008E8110008830730B561
:1011180048D0541E002A3FD0CAB2034601E0013C21
:101128003AD303F8012B9D07F9D1032C2DD9CDB261
:1011380045EA05250F2C45EA054536D9A4F11002E4
:1011480022F00F0C03F1200EE6444FEA121C03F1C3
:10115800100242E9045542E9025510327245F8D1AD
:101168000CF1010214F00C0F03EB021204F00F0C47
:1011780013D0ACF1040323F003030433134442F8FF
:10118800045B9342FBD10CF003042CB1C9B21C449C
:1011980003F8011B9C42FBD130BD64461346002C6A
:1011A800F4D1F9E703461446BFE71A46A446E0E738
:1011B800F8B500BFF8BC08BC9E467047F8B500BF3C
:0811C800F8BC08BC9E4670470C
:1011D00000000000000000000102030406070809E7
:0811E00024FCFF7F0100000068
:0411E80025020008D4
:0411EC00FD010008F9
:0C11F0000024F4000100000010000000CA
:04000005080003FDEF
:00000001FF
